:020000040800F2
:10000000A00E0020611100086511000867110008AA
:10001000691100086B1100086D1100080000000054
:100020000000000000000000000000006F11000848
:10003000711100080000000073110008751100081C
:100040007711000877110008771100087711000870
:1000500077110008771100081F0A000877110008BF
:10006000610900087711000877110008771100086E
:100070007711000877110008771100087711000840
:100080007711000877110008771100087711000830
:100090007711000877110008771100087711000820
:1000A0007711000877110008771100087711000810
:1000B00077110008C70A00087711000877110008B7
:1000C00077110008771100087711000877110008F0
:1000D00077110008C90F0008771100087711000890
:1000E00077110008771100087711000800F002F876
:1000F00000F03AF80AA090E8000C82448344AAF188
:100100000107DA4501D100F02FF8AFF2090EBAE885
:100110000F0013F0010F18BFFB1A43F0010318473B
:100120002416000044160000103A24BF78C878C195
:10013000FAD8520724BF30C830C144BF04680C60ED
:10014000704700000023002400250026103A28BF35
:1001500078C1FBD8520728BF30C148BF0B60704739
:100160001FB51FBD10B510BD01F019F81146FFF7FE
:10017000F7FF00F0DBFF01F037F803B4FFF7F2FF01
:1001800003BC00F013FF000030BF00007F4880690F
:1001900040F010007D4988617D4800686FF30B00D6
:1001A0007B4908600846006840F6880108437849A2
:1001B00008600846C06840F00700C860704710B586
:1001C00074480078E8B17448006828B17348006842
:1001D00010B173480068A0B90A2000F039FD002072
:1001E0006C4908706C48006808B9012010BD6B4864
:1001F000006808B90220F9E76948006878B9032067
:10020000F4E765480068012809D1644800680128BE
:1002100005D163480068012801D15E4908700020BB
:10022000E4E75A48806940F010005849886158480E
:10023000006820F00F00564908605448806940F477
:100240000070524988610846C06840F40070C86078
:100250000846C06820F40070C8600846406820F472
:10026000404048600846406840F4004048604D48BF
:1002700000684D4908404B4908600846006808601E
:100280000846006820F480700860081D006820F0AF
:100290000200091D08600846006820F4602008601C
:1002A0000846006840F4602008600846006840F492
:1002B000801008600846006820F400600860394833
:1002C0002830006820F4700036492831086008465C
:1002D00000680020086033480830006820F00F00F4
:1002E0003049083108600846006840F0070008609F
:1002F000081F006840F00100091F086008460068F8
:1003000040F00800086000BF2648001D006810F09B
:10031000080FF9D12348001D006840F0040021496E
:10032000091D086000BF1F48001D006810F0040F81
:10033000F9D1704701461B483030006820F01F009B
:10034000184A3032106010460068084310601548A3
:10035000001D006840F48000124A121D106000BFAA
:100360001048001F006810F0020FF9D00D48483007
:10037000006880B2704710B504462046FFF7DAFFE8
:1003800003469B1103F00703184610BD00100240FE
:100390000010014000000020080122420401224216
:1003A0000001224204240140FFFFF0005948806907
:1003B00040F00100574988610846806940F0080014
:1003C00088610846806940F0400088615248406872
:1003D00040F0007050494860504800686FF30F00CB
:1003E0004E4908600846006843F2333108434B49E0
:1003F00008604A480C30006840F0FF0047490C3163
:1004000008604748006800204549086008460068C1
:1004100040F03330086042480830006840F47F40C4
:100420003F4908310860704700F001013D4A116002
:10043000C0F340013C4AC2F8A411C0F380013B4A1A
:100440001160C0F3C00102F104021160C0F3001199
:1004500002F104021160C0F3401102F104021160C4
:10046000C0F3801102F104021160C0F3C0112E4AE2
:10047000C2F8BC11704730B503460C46184603EB72
:10048000D0714910A3EB4101294A1160194603EBD1
:10049000D1724FEA620000EBD0724FEA6202A0EB29
:1004A0004202244DC5F8842118464FEAE37103EB5C
:1004B00091714FEAA101204A11602049085DFFF7C0
:1004C000B3FF30BD30B503460C46184603EBD07180
:1004D0004910A3EB4101164A1160194603EBD17292
:1004E0004FEA620000EBD0724FEA6202A0EB4202D8
:1004F000104DC5F8842118464FEAE37103EB917162
:100500004FEAA1010C4A11600D49085DFFF78CFF0D
:1005100030BD00000010024000000140000C01400E
:1005200004180140A001234200002342A8012342F5
:1005300080812142008021428881214201000020E7
:100540000C0000200146CA1701EB92729210B1EB29
:10055000820205D1642291FBF2F302FB131232B93D
:100560004FF4C87291FBF2F302FB13120AB9012097
:1005700070470020FCE710B5002450E05CB1022C6D
:1005800009D0042C07D0062C05D0072C03D0092C49
:1005900001D00B2C1BD1FC4800681F283ED9FB481A
:1005A0000068A0423AD10120F7490860F748006886
:1005B000401CF6490860084600680D282ED101202D
:1005C0000860F3480068401CF149086026E0012CEF
:1005D00013D1ED4800681C2820D9EC480068022897
:1005E0001CD1EB480068FFF7ADFFB8B90120E64920
:1005F00008600320E549086010E0E34800681E2811
:100600000CD9E2480168601C814207D10120DE4913
:100610000860DE480068401CDC490860641C0C2C43
:10062000ACDB10BD10B5D848006840BB002424E006
:100630005CB1022C09D0042C07D0062C05D0072C65
:1006400003D0092C01D00B2C03D11F20CE49086008
:1006500012E0012C0DD1CE480068FFF773FF01288E
:1006600003D11D20C849086006E01C20C649086067
:1006700002E01E20C4490860641C0C2CD8DB10BDAD
:1006800070B504460D46C348C06940F00200C14938
:10069000C861C1480480001F0580BF482038008819
:1006A00040F00100BC4920390880BB482C38008844
:1006B00040F00100B8492C39088002231D22032193
:1006C000012000F017FBB348806940F01000B149E9
:1006D0008861B24800686FF30B00B04908600846B3
:1006E000006840F688010843AC49086001220021F7
:1006F000022000F04DFB01221146022000F048FBD1
:1007000001220221084600F043FB0223062219467B
:10071000002000F0EFFA70BD10B59D4800684FF45E
:100720007A71B0FBF1F0C4B221460020FFF7A3FEBE
:10073000012000F08DFA964800686421B0FBF1F0CA
:100740000A21B0FBF1F201FB120421460120FFF760
:1007500092FE012000F07CFA8D4800680A21B0FB6F
:10076000F1F0B0FBF1F201FB120421460220FFF789
:1007700082FE012000F06CFA854800680A21B0FB77
:10078000F1F201FB120421460320FFF774FE012061
:1007900000F05EFA7D4800680A21B0FBF1F0C4B2B7
:1007A00021460420FFF767FE012000F051FA774848
:1007B00000680A21B0FBF1F201FB1204214605207A
:1007C000FFF759FE012000F043FA6F4800680A2144
:1007D000B0FBF1F0C4B221460620FFF74CFE012029
:1007E00000F036FA684800680A21B0FBF1F201FB1C
:1007F000120421460720FFF73EFE012000F028FAF0
:1008000010BD70B504460D466248C06940F0020054
:100810006049C86160480480001F05805E48203838
:10082000008840F001005C49203908805A482C3883
:10083000008840F0010058492C39088002231D220D
:100840000321012000F056FA5248806940F0100060
:1008500050498861514800686FF30B004F490860A8
:100860000846006840F6880108434C4908600122A8
:100870000021022000F08CFA01221146022000F033
:1008800087FA01220221084600F082FA022306229A
:100890001946002000F02EFA0223082219461846B5
:1008A00000F028FA70BD2DE9F04104460D461646C9
:1008B0000A2094FBF0F0C7B239460020FFF7DBFDB9
:1008C000012000F0C5F90A2094FBF0F100FB114073
:1008D000C7B239460120FFF7CEFD012000F0B8F97C
:1008E0000A210220FFF7C7FD012000F0B1F90A201C
:1008F00095FBF0F0C7B239460320FFF7BCFD01209D
:1009000000F0A6F90A2095FBF0F100FB1150C7B2E8
:1009100039460420FFF7AFFD012000F099F90A21C4
:100920000520FFF7A8FD012000F092F90A2096FBB0
:10093000F0F0C7B239460620FFF79DFD012000F018
:1009400087F90A2096FBF0F100FB1160C7B2394627
:100950000720FFF790FD012000F07AF9BDE8F08153
:1009600010B50A2000F074F90D480068002852D133
:1009700001200B4908604FF000000A4908700A493D
:1009800008700A49087045E02C000020340000205F
:1009900030000020001002402C04004000100140F4
:1009A000080122421A00002019000020180000202F
:1009B0008D4802788D4801788D480078FFF773FFE5
:1009C0000A2000F045F9FFF7FAFB8A49087008464B
:1009D000007802281ED1864800788749874A127815
:1009E0008854824801788648844A127881547E4827
:1009F00001788448814A1278815480480078401CEC
:100A00007E49087008460078401E7F490870022021
:100A10007E490860CCE704207C49086010BD10B511
:100A20000A2000F015F97A480068002847D145E00F
:100A30006D4802786D4801786D480078FFF733FF04
:100A4000FFF7BDFB6B49087008460078022835D1D6
:100A500033E06C4B694C24781A5D694B674C247801
:100A6000195D654B654C2478185DFFF71CFF6148E4
:100A7000007802280BD161480078002804DD5F4827
:100A80000078401E5D49087002206049086059489E
:100A9000007803280DD1594800785B4909788842CD
:100AA00004DA56480078401C544908700120574920
:100AB0000860FFF784FB4F490870CAE7B8E70120D8
:100AC0005249086010BD5348008810F0010F20D033
:100AD00045480078401C44490870084600783B2887
:100AE00017DD0020087041480078401C3F4908701D
:100AF000084600783B280CDD002008703C48007850
:100B0000401C3B49087008460078172801DD00208A
:100B100008704048008820F001003E490880704776
:100B200010B5334800780A2190FBF1F0C4B2214699
:100B30000020FFF7A0FC012000F08AF82C48007884
:100B40000A2190FBF1F201FB1200C4B22146012000
:100B5000FFF791FC012000F07BF80A210220FFF74B
:100B60008AFC012000F074F8204800780A2190FBEC
:100B7000F1F0C4B221460320FFF77DFC012000F014
:100B800067F81A4800780A2190FBF1F201FB120085
:100B9000C4B221460420FFF76EFC012000F058F893
:100BA0000A210520FFF767FC012000F051F80E48EC
:100BB00000780A2190FBF1F0C4B221460620FFF72D
:100BC0005AFC012000F044F8074800780A2190FB05
:100BD000F1F201FB1200C4B221460720FFF74BFCE3
:100BE000012000F035F810BD1A0000201900002087
:100BF000180000201C000020480000201B000020DE
:100C0000300400201808002038000020140401409F
:100C100000012242100400404FF0E021096921F058
:100C200004014FF0E0221161C21700EB5272C2F3CF
:100C3000C702224B1A701946097801EB4102C2EB38
:100C4000C1114FF6FF7202EAC1011D4A11807047BF
:100C500001461B4A12884A434FF0E0235A610022A2
:100C60009A6101221A6100BF4FF0E022106910F072
:100C7000010F02D010F4803FF6D000224FF0E023A5
:100C80001A619A61704701460C4A12784A434FF044
:100C9000E0235A6100229A6101221A6100BF4FF0DD
:100CA000E022106910F0010F02D010F4803FF6D05E
:100CB00000224FF0E0231A619A6170473A00002049
:100CC0003C000020AC4A0A400243AC4B1A6070471B
:100CD0000146072323EA01021202A84B1B1D1868D4
:100CE0004FF6FF031840A64B18431043A34B1B1DA0
:100CF000186070472DE9F0478046894614461D4626
:100D00002046E11704EB9171C1F3870AE11704EB68
:100D100091718910A4EB8101CFB2042000EBC700D0
:100D2000C7B22846FFF7D4FFC5F1040008FA00F661
:100D30000F20284100EA0900064306F00F06202C88
:100D40000CDA904801684FF0010000FA04F041EA23
:100D500000014FF0E020C0F800110DE08A48006863
:100D6000A4F120014FF0010202FA01F240EA020070
:100D70004FF0E021C1F80401844850F82A0006FA37
:100D800007F140EA0100814941F82A00BDE8F087F7
:100D900070B504460B46CE1701EB9676C6F3870076
:100DA000CE1701EB9676B610A1EB8606B606350E89
:100DB000774B9B6943F00103754EB3614FEAB6333D
:100DC00053F820300F26AE40B343724E46F8203021
:100DD000334653F8203004FA05F61E436D4B43F8B2
:100DE00020606D4B1B6801268E4033436A4E336092
:100DF00012F0010F08D0684B0C331B6801268E409F
:100E00003343654E0C36336012F0020F08D0624B4C
:100E100008331E6801238B401E435F4B08331E605E
:100E200070BD00B500205A490861C86014204861AF
:100E300000208861C8610846006840F00100086031
:100E400008464068554908405149486008460068CE
:100E5000534908404E4908600846006820F4802045
:100E600008600846406820F4FE0048600020886062
:100E700000214FF00060FFF725FF00BD10B53F488F
:100E80000830006840F004003C49083108604048E0
:100E9000C06940F080503E49C8614248406840F413
:100EA0008070404948600846006840F004000860CF
:100EB0000846006840F002000860FFF765F910BDC1
:100EC0002F48001D2D49091D08607047014649063D
:100ED0002F4A926942F001022D4B9A612D4A083A3D
:100EE000526822F0E0622B4B083B5A601A46526867
:100EF0000A435A60704730B504460025FFF791FF5A
:100F00002348006840F480302149086000BF204831
:100F10000068400CFBD04FF480601D494860A01E63
:100F2000C4B20846406840EA8440486008464068C9
:100F300040F4803048601C48006840F032001A4994
:100F400008601348006840F080701149086000BFD5
:100F50000F480068400EFBD00D48406840F002008A
:100F60000B49486005E00A484068C0F3870505F072
:100F70000305022DF7D130BD80FFFF1F08ED00E013
:100F80000000FA0500E100E004E100E000E400E018
:100F90000010024008000140000401400000FFF87A
:100FA000FFFFF6FE0070004000200240014600BF37
:100FB000704700BF574A128812F0400FFAD0C2B2F1
:100FC000544B1B1D1A8070475249098811F0200F9D
:100FD00034D05049091D0988C8B24F49097811F029
:100FE000800F2BD14C49097811F0400F0CD00A2802
:100FF00003D00021484A117020E04749097841F0A8
:101000008001454A117019E00D2806D1424909783E
:1010100041F04001404A117010E03F49097801F069
:101020003F013E4A50543C490978491C3A4A1170E4
:10103000114609783F2901DD0021117070472DE923
:10104000F05F05460E46300100F01CFA8146344937
:1010500005FB01F000F016FA8246494600F030F92F
:101060000746384600F0EEF984B2204600F00AFA4E
:101070008346394600F0E6FA82464FF0834100F09D
:1010800015FA814600F0DEF980464FF6FF7000EA5F
:10109000041404EB080084B22248806940F0040084
:1010A000204988610846806940F4804088611E4874
:1010B000006820F47F601C4908600846006840F41E
:1010C0000B6008601748C06840F480401549C8604C
:1010D0000846C06820F48040C8600E48083004808C
:1010E000001D008842F20C0108430A490C310880B7
:1010F0000846008840F4807008800846008840F068
:10110000200008800223252203210846FFF7F2FD74
:10111000BDE8F09F0038014040000020000C002096
:1011200040420F0000100240040801400620FFF773
:10113000E2FE4820FFF770FD41F61F410A20FFF74D
:1011400060FBFFF733F900200449086004E0002247
:1011500011461046FFF7A7FBF9E700008C812142FA
:1011600008480047FEE7FEE7FEE7FEE7FEE7FEE78A
:10117000FEE7FEE7FEE7FEE703480449024A044BA8
:1011800070470000ED000008A00C0020A00E002019
:10119000A00C002070477047704770477047754635
:1011A00000F028F8AE4605006946534620F00700D7
:1011B000854618B020B5FFF7DFFFBDE820404FF0AF
:1011C00000064FF000074FF000084FF0000B21F031
:1011D0000701AC46ACE8C009ACE8C009ACE8C009FE
:1011E000ACE8C0098D4670470446AFF30080204646
:1011F000FEF7C3FF00487047400C002090EA010F43
:1012000048BF81F0004100F12E82421A3CBF801A93
:1012100089184FEAD0524FF07F4C1CEA410FA2EBE5
:10122000D15318BF9CEA026F00F03B804FF0004C96
:101230004CEA00204CEA012121FA03FC10EB0C0CD3
:101240001ED202F1FF325FEA1C2040EBC25038BFD1
:1012500070471CF07F0F4FEA400C18BFBCF17F4F66
:1012600038BF7047C3F12003994008BF20F0010048
:10127000BCF17F4F38BF7047A0F1C04000F0DDB92E
:101280004FEA3C00000A40EBC25028BF1CF0FF0FA1
:101290004FEA400CE6D018BFBCF17F4F38BF704713
:1012A000EAE79CEA026F05D010EA5C0F08BF00F085
:1012B0000040704710B500F07AF900BF64FBBE3EF5
:1012C0004FF47F0C1CEAD0121EBF1CEAD11392EA25
:1012D0000C0F93EA0C0F00F0858090EA010F48BFD5
:1012E00042F4807240F4000C41F400002CF07F4185
:1012F00020F07F4000B58142A2EB03020FF2081CF0
:10130000ACEB504EC0F100009EF800E04FEA4E0EEC
:1013100000FB0EFC38BF49004FEA2C1C02F5FA0214
:101320000CFB0EF34FEACE1E4FEA112C4FEAC121FF
:101330000EEB635E42EB22420EFB0CFC4FEA1C53A9
:1013400000FB03114FEA112C4FEA01310EFB0CFC9C
:101350004FEADC4C00FB0C11C14228BF09184CEBD2
:1013600003335DF804EB10EB410143EBC250B2F5DF
:101370007C0F38BF704729D512F0F00F1CBF00F169
:10138000C04000F0004070470081828384858687DA
:1013900088898B8C8D8E8F919293959697999A9C34
:1013A0009D9FA0A2A3A5A7A8AAACAEB0B2B3B5B7A3
:1013B000B9BCBEC0C2C5C7C9CCCED1D4D7D9DCDF79
:1013C000E2E6E9ECF0F3F7FAFE0000004FEA400C29
:1013D0000CF1807CBCF17E4F28BF7047B0F1C0405B
:1013E00000F02BB990EA010F0CEAD11348BF42F488
:1013F0008072624538BF634507D213F47F0F16D061
:1014000080EA010000F00040704710B500F0CFF80E
:10141000097EFC3E00F005B880EA010000F00040C3
:10142000704780EA010000F0004000F006B912F4B5
:101430007F0F04BF0248704780EA010000F0FDB84A
:101440000000C07FC10DD1F19E0206DB4FEA0023F0
:1014500043F0004323FA02F07047004207D54FEAF9
:101460004001B1F1FE4F02D24FF00000704710B5BD
:1014700000F09DF849922480002070476FEA200018
:1014800070470000B0FA80F310FA03F2C3F19D0335
:101490000AD0D90501EB1220530638BF704700F17E
:1014A000010008BF20F00100704700004FF47F0CDE
:1014B0001CEAD0121EBF1CEAD11392EA0C0F93EA69
:1014C0000C0F00F0478090EA010F48BF42F4807291
:1014D0004FF0004C4CEA00204CEA012102EB0302E1
:1014E000A0FB0113A2F50002002918BF43F001037D
:1014F0005B0028BF4FEA330342EB22425FEA132C22
:101500004CEBC2502EBFBCEB436FB2F57C0F704763
:101510004FEA036CBCF1004F08BF20F00100B2F5A8
:101520007C0F38BF70470BD582F0FF0212F5803F69
:10153000C8BF704700F1C040D8BF00F000407047FE
:1015400000F5000C5FEA4C0C48BF7047B0F1C0409A
:1015500000F073B890EA010F0CEAD11348BF42F4CF
:101560008072624538BF634504D280EA010000F012
:101570000040704710B500F01AF800BF8900013E26
:1015800000F007B800F009B85FEA410C5FEA1C6C94
:1015900008D080EA010000F050B85FEA400C5FEA32
:1015A0001C6CF6D14FF00040A0F5800070470EF1A2
:1015B000020E2EF0030E5EF8044B244204D44FEAD0
:1015C0004102B2F17F4F11D84FEA4003B3F17F4F90
:1015D0000CD80ED14FEAD07CB2F17F4F0CEB4C0C03
:1015E0000CF1020C08BF4CEBD17C04E04FF0080C6E
:1015F00001E04FEAD17C0CEB4C0324FA03F404F035
:101600000704B4F1040C06D20EEB840CBDE81040C4
:101610004CF0010C6047DFE80CF0070802024FF0C5
:101620000040A0F5800010BD0846420018BFD2F16E
:10163000807288BF00F0004010BDFF2141EAD05009
:10164000C005704780F0004090EA010F7FF5DDADE6
:1016500081F0004100F007B890EA010F48BF81F027
:1016600000413FF5D2AD421A04D882F00042A0EB0F
:10167000020011444FEAD0524FF07F4C1CEA410F58
:10168000A2EBD15318BF9CEA026F4AD04FF0004C36
:101690004CEA00204CEA012121FA03FCB0EB0C0CCF
:1016A0000FD412F0FE0F36D05FEA4C001DD50012A9
:1016B00040EBC25038BF70471CF03F0F18BF704757
:1016C0000BE0A2F101025FEA1C2040EBC25038BFE0
:1016D00070471CF07F0F18BF7047C3F1200399407B
:1016E00014BF401E20F00100704780084FEA12230B
:1016F00008BF7047B0FA80FCA2EB0C02CCF1280CBA
:1017000060FA0CF093EA122F04BF00EBC25070474E
:101710004FEAC3707047130A5FEADC1008BF7047D6
:10172000F6E79CEA026F04D010EA5C0F08BF0020C5
:10173000704710B5FFF73BFF40DFF63E81F00040F9
:1017400070470000641700080000002048000000F7
:1017500028010008AC17000848000020580E0000BF
:1017600044010008013F065B4F666D7D077F6F40B7
:10177000BF86DBCFE6EDFD87FFEF00000000000035
:10178000001F1C1F1E1F1E1F1F1E1F1E1F000000EC
:1017900015000000E3070000050000000000000045
:0C17A0000000000000000000000000003D
:04000005080000ED02
:00000001FF
